:1000000000308A0049280000831686015D30831283
:10001000860085108316851083120511831605113D
:1000200083125C2883168601AE3083128600851009
:10003000831685108312051183160511831208009B
:100040002330840083130008031934280130F8009A
:10005000F701F70B2928F80B28284A30F700F70B8F
:100060002F283228800B26280800831686010530A9
:1000700083128600851483168510831267288316E1
:100080008601183083128600051583160511831228
:10009000772803081F39830007309F0083138316D6
:1000A00085158312211085192114831605168312D4
:1000B000A110051AA114042821186C28122004305C
:1000C000A200FA30A3002020A20B61283528831655
:1000D00085158312851D6728A1187C2812200430FD
:1000E000A200FA30A3002020A20B71283F2883161B
:0C00F00005168312051E77284F286300B8
:02400E00413F30
:00000001FF
;PIC16F628A
;CRC=9DF6  CREATED="11-out-20 17:06"
